{
  "contracts/Faucet.sol": {
    "Faucet": {
      "abi": [
        {
          "inputs": [
            {
              "internalType": "uint256",
              "name": "_amount",
              "type": "uint256"
            }
          ],
          "name": "withdraw",
          "outputs": [],
          "stateMutability": "nonpayable",
          "type": "function"
        },
        {
          "stateMutability": "payable",
          "type": "receive"
        }
      ],
      "evm": {
        "bytecode": {
          "linkReferences": {},
          "object": "608060405234801561001057600080fd5b506101fe806100206000396000f3fe6080604052600436106100225760003560e01c80632e1a7d4d1461002e57610029565b3661002957005b600080fd5b34801561003a57600080fd5b5061005560048036038101906100509190610101565b610057565b005b67016345785d8a00008111156100a2576040517f08c379a00000000000000000000000000000000000000000000000000000000081526004016100999061014d565b60405180910390fd5b3373ffffffffffffffffffffffffffffffffffffffff166108fc829081150290604051600060405180830381858888f193505050501580156100e8573d6000803e3d6000fd5b5050565b6000813590506100fb816101b1565b92915050565b60006020828403121561011357600080fd5b6000610121848285016100ec565b91505092915050565b600061013760178361016d565b915061014282610188565b602082019050919050565b600060208201905081810360008301526101668161012a565b9050919050565b600082825260208201905092915050565b6000819050919050565b7f45786365656473207769746864726177206c696d69742e000000000000000000600082015250565b6101ba8161017e565b81146101c557600080fd5b5056fea26469706673582212201c8fb7e0c5e9b4b497646ac6209b9e70326b6f72b5106afd0b389f0d5ad0f42164736f6c63430008040033",
          "opcodes": "PUSH1 0x80 PUSH1 0x40 MSTORE CALLVALUE DUP1 ISZERO PUSH2 0x10 JUMPI PUSH1 0x0 DUP1 REVERT JUMPDEST POP PUSH2 0x1FE DUP1 PUSH2 0x20 PUSH1 0x0 CODECOPY PUSH1 0x0 RETURN INVALID PUSH1 0x80 PUSH1 0x40 MSTORE PUSH1 0x4 CALLDATASIZE LT PUSH2 0x22 JUMPI PUSH1 0x0 CALLDATALOAD PUSH1 0xE0 SHR DUP1 PUSH4 0x2E1A7D4D EQ PUSH2 0x2E JUMPI PUSH2 0x29 JUMP JUMPDEST CALLDATASIZE PUSH2 0x29 JUMPI STOP JUMPDEST PUSH1 0x0 DUP1 REVERT JUMPDEST CALLVALUE DUP1 ISZERO PUSH2 0x3A JUMPI PUSH1 0x0 DUP1 REVERT JUMPDEST POP PUSH2 0x55 PUSH1 0x4 DUP1 CALLDATASIZE SUB DUP2 ADD SWAP1 PUSH2 0x50 SWAP2 SWAP1 PUSH2 0x101 JUMP JUMPDEST PUSH2 0x57 JUMP JUMPDEST STOP JUMPDEST PUSH8 0x16345785D8A0000 DUP2 GT ISZERO PUSH2 0xA2 JUMPI PUSH1 0x40 MLOAD PUSH32 0x8C379A000000000000000000000000000000000000000000000000000000000 DUP2 MSTORE PUSH1 0x4 ADD PUSH2 0x99 SWAP1 PUSH2 0x14D JUMP JUMPDEST PUSH1 0x40 MLOAD DUP1 SWAP2 SUB SWAP1 REVERT JUMPDEST CALLER PUSH20 0xFFFFFFFFFFFFFFFFFFFFFFFFFFFFFFFFFFFFFFFF AND PUSH2 0x8FC DUP3 SWAP1 DUP2 ISZERO MUL SWAP1 PUSH1 0x40 MLOAD PUSH1 0x0 PUSH1 0x40 MLOAD DUP1 DUP4 SUB DUP2 DUP6 DUP9 DUP9 CALL SWAP4 POP POP POP POP ISZERO DUP1 ISZERO PUSH2 0xE8 JUMPI RETURNDATASIZE PUSH1 0x0 DUP1 RETURNDATACOPY RETURNDATASIZE PUSH1 0x0 REVERT JUMPDEST POP POP JUMP JUMPDEST PUSH1 0x0 DUP2 CALLDATALOAD SWAP1 POP PUSH2 0xFB DUP2 PUSH2 0x1B1 JUMP JUMPDEST SWAP3 SWAP2 POP POP JUMP JUMPDEST PUSH1 0x0 PUSH1 0x20 DUP3 DUP5 SUB SLT ISZERO PUSH2 0x113 JUMPI PUSH1 0x0 DUP1 REVERT JUMPDEST PUSH1 0x0 PUSH2 0x121 DUP5 DUP3 DUP6 ADD PUSH2 0xEC JUMP JUMPDEST SWAP2 POP POP SWAP3 SWAP2 POP POP JUMP JUMPDEST PUSH1 0x0 PUSH2 0x137 PUSH1 0x17 DUP4 PUSH2 0x16D JUMP JUMPDEST SWAP2 POP PUSH2 0x142 DUP3 PUSH2 0x188 JUMP JUMPDEST PUSH1 0x20 DUP3 ADD SWAP1 POP SWAP2 SWAP1 POP JUMP JUMPDEST PUSH1 0x0 PUSH1 0x20 DUP3 ADD SWAP1 POP DUP2 DUP2 SUB PUSH1 0x0 DUP4 ADD MSTORE PUSH2 0x166 DUP2 PUSH2 0x12A JUMP JUMPDEST SWAP1 POP SWAP2 SWAP1 POP JUMP JUMPDEST PUSH1 0x0 DUP3 DUP3 MSTORE PUSH1 0x20 DUP3 ADD SWAP1 POP SWAP3 SWAP2 POP POP JUMP JUMPDEST PUSH1 0x0 DUP2 SWAP1 POP SWAP2 SWAP1 POP JUMP JUMPDEST PUSH32 0x45786365656473207769746864726177206C696D69742E000000000000000000 PUSH1 0x0 DUP3 ADD MSTORE POP JUMP JUMPDEST PUSH2 0x1BA DUP2 PUSH2 0x17E JUMP JUMPDEST DUP2 EQ PUSH2 0x1C5 JUMPI PUSH1 0x0 DUP1 REVERT JUMPDEST POP JUMP INVALID LOG2 PUSH5 0x6970667358 0x22 SLT KECCAK256 SHR DUP16 0xB7 0xE0 0xC5 0xE9 0xB4 0xB4 SWAP8 PUSH5 0x6AC6209B9E PUSH17 0x326B6F72B5106AFD0B389F0D5AD0F42164 PUSH20 0x6F6C634300080400330000000000000000000000 "
        },
        "methodIdentifiers": {
          "withdraw(uint256)": "2e1a7d4d"
        }
      }
    }
  }
}