{
  "_format": "hh-sol-artifact-1",
  "contractName": "Faucet",
  "sourceName": "contracts/Faucet.sol",
  "abi": [
    {
      "inputs": [
        {
          "internalType": "uint256",
          "name": "_amount",
          "type": "uint256"
        }
      ],
      "name": "withdraw",
      "outputs": [],
      "stateMutability": "nonpayable",
      "type": "function"
    },
    {
      "stateMutability": "payable",
      "type": "receive"
    }
  ],
  "bytecode": "0x608060405234801561001057600080fd5b506101fe806100206000396000f3fe6080604052600436106100225760003560e01c80632e1a7d4d1461002e57610029565b3661002957005b600080fd5b34801561003a57600080fd5b5061005560048036038101906100509190610101565b610057565b005b67016345785d8a00008111156100a2576040517f08c379a00000000000000000000000000000000000000000000000000000000081526004016100999061014d565b60405180910390fd5b3373ffffffffffffffffffffffffffffffffffffffff166108fc829081150290604051600060405180830381858888f193505050501580156100e8573d6000803e3d6000fd5b5050565b6000813590506100fb816101b1565b92915050565b60006020828403121561011357600080fd5b6000610121848285016100ec565b91505092915050565b600061013760178361016d565b915061014282610188565b602082019050919050565b600060208201905081810360008301526101668161012a565b9050919050565b600082825260208201905092915050565b6000819050919050565b7f45786365656473207769746864726177206c696d69742e000000000000000000600082015250565b6101ba8161017e565b81146101c557600080fd5b5056fea26469706673582212201c8fb7e0c5e9b4b497646ac6209b9e70326b6f72b5106afd0b389f0d5ad0f42164736f6c63430008040033",
  "linkReferences": {},
  "deployedLinkReferences": {}
}